{"abi":[{"type":"function","name":"UPGRADE_INTERFACE_VERSION","inputs":[],"outputs":[{"name":"","type":"string","internalType":"string"}],"stateMutability":"view"},{"type":"function","name":"benchmankCircuitCycleCount","inputs":[],"outputs":[{"name":"","type":"uint256","internalType":"uint256"}],"stateMutability":"view"},{"type":"function","name":"endpoints","inputs":[{"name":"","type":"address","internalType":"address"}],"outputs":[{"name":"","type":"string","internalType":"string"}],"stateMutability":"view"},{"type":"function","name":"finalizeTask","inputs":[{"name":"taskId","type":"bytes32","internalType":"bytes32"},{"name":"imageId","type":"bytes32","internalType":"bytes32"},{"name":"publicInputsHash","type":"bytes32","internalType":"bytes32"},{"name":"proofHash","type":"bytes32","internalType":"bytes32"}],"outputs":[],"stateMutability":"nonpayable"},{"type":"function","name":"initialize","inputs":[{"name":"_verifier","type":"address","internalType":"address"},{"name":"_token","type":"address","internalType":"address"},{"name":"_registerThreshold","type":"uint256","internalType":"uint256"},{"name":"_minReward","type":"uint256","internalType":"uint256"},{"name":"_maxReward","type":"uint256","internalType":"uint256"},{"name":"_maxSpeed","type":"uint256","internalType":"uint256"},{"name":"_benchmankCircuitCycleCount","type":"uint256","internalType":"uint256"}],"outputs":[],"stateMutability":"nonpayable"},{"type":"function","name":"maxReward","inputs":[],"outputs":[{"name":"","type":"uint256","internalType":"uint256"}],"stateMutability":"view"},{"type":"function","name":"maxSpeed","inputs":[],"outputs":[{"name":"","type":"uint256","internalType":"uint256"}],"stateMutability":"view"},{"type":"function","name":"minReward","inputs":[],"outputs":[{"name":"","type":"uint256","internalType":"uint256"}],"stateMutability":"view"},{"type":"function","name":"minSpeed","inputs":[],"outputs":[{"name":"","type":"uint256","internalType":"uint256"}],"stateMutability":"view"},{"type":"function","name":"owner","inputs":[],"outputs":[{"name":"","type":"address","internalType":"address"}],"stateMutability":"view"},{"type":"function","name":"proverRewards","inputs":[{"name":"","type":"address","internalType":"address"}],"outputs":[{"name":"","type":"uint256","internalType":"uint256"}],"stateMutability":"view"},{"type":"function","name":"proverSpeeds","inputs":[{"name":"","type":"address","internalType":"address"}],"outputs":[{"name":"","type":"uint256","internalType":"uint256"}],"stateMutability":"view"},{"type":"function","name":"proxiableUUID","inputs":[],"outputs":[{"name":"","type":"bytes32","internalType":"bytes32"}],"stateMutability":"view"},{"type":"function","name":"register","inputs":[{"name":"speed","type":"uint256","internalType":"uint256"},{"name":"endpoint","type":"string","internalType":"string"}],"outputs":[],"stateMutability":"nonpayable"},{"type":"function","name":"registerPermit","inputs":[{"name":"speed","type":"uint256","internalType":"uint256"},{"name":"endpoint","type":"string","internalType":"string"},{"name":"deadline","type":"uint256","internalType":"uint256"},{"name":"v","type":"uint8","internalType":"uint8"},{"name":"r","type":"bytes32","internalType":"bytes32"},{"name":"s","type":"bytes32","internalType":"bytes32"}],"outputs":[],"stateMutability":"nonpayable"},{"type":"function","name":"registerThreshold","inputs":[],"outputs":[{"name":"","type":"uint256","internalType":"uint256"}],"stateMutability":"view"},{"type":"function","name":"renounceOwnership","inputs":[],"outputs":[],"stateMutability":"nonpayable"},{"type":"function","name":"requestTask","inputs":[{"name":"cycleCount","type":"uint256","internalType":"uint256"}],"outputs":[{"name":"taskId","type":"bytes32","internalType":"bytes32"}],"stateMutability":"nonpayable"},{"type":"function","name":"requestTaskPermit","inputs":[{"name":"cycleCount","type":"uint256","internalType":"uint256"},{"name":"deadline","type":"uint256","internalType":"uint256"},{"name":"v","type":"uint8","internalType":"uint8"},{"name":"r","type":"bytes32","internalType":"bytes32"},{"name":"s","type":"bytes32","internalType":"bytes32"}],"outputs":[{"name":"taskId","type":"bytes32","internalType":"bytes32"}],"stateMutability":"nonpayable"},{"type":"function","name":"setMaxReward","inputs":[{"name":"_maxReward","type":"uint256","internalType":"uint256"}],"outputs":[],"stateMutability":"nonpayable"},{"type":"function","name":"setMinReward","inputs":[{"name":"_minReward","type":"uint256","internalType":"uint256"}],"outputs":[],"stateMutability":"nonpayable"},{"type":"function","name":"slash","inputs":[{"name":"taskId","type":"bytes32","internalType":"bytes32"},{"name":"publicInputsHash","type":"bytes32","internalType":"bytes32"},{"name":"proof","type":"bytes","internalType":"bytes"}],"outputs":[],"stateMutability":"nonpayable"},{"type":"function","name":"tasks","inputs":[{"name":"","type":"bytes32","internalType":"bytes32"}],"outputs":[{"name":"requester","type":"address","internalType":"address"},{"name":"prover","type":"address","internalType":"address"},{"name":"reward","type":"uint256","internalType":"uint256"},{"name":"imageId","type":"bytes32","internalType":"bytes32"},{"name":"publicInputsHash","type":"bytes32","internalType":"bytes32"},{"name":"proofHash","type":"bytes32","internalType":"bytes32"},{"name":"cycleCount","type":"uint256","internalType":"uint256"},{"name":"deadline","type":"uint256","internalType":"uint256"}],"stateMutability":"view"},{"type":"function","name":"token","inputs":[],"outputs":[{"name":"","type":"address","internalType":"address"}],"stateMutability":"view"},{"type":"function","name":"transferOwnership","inputs":[{"name":"newOwner","type":"address","internalType":"address"}],"outputs":[],"stateMutability":"nonpayable"},{"type":"function","name":"updateSpeed","inputs":[{"name":"newSpeed","type":"uint256","internalType":"uint256"}],"outputs":[],"stateMutability":"nonpayable"},{"type":"function","name":"upgradeToAndCall","inputs":[{"name":"newImplementation","type":"address","internalType":"address"},{"name":"data","type":"bytes","internalType":"bytes"}],"outputs":[],"stateMutability":"payable"},{"type":"function","name":"verifier","inputs":[],"outputs":[{"name":"","type":"address","internalType":"contract IRiscZeroVerifier"}],"stateMutability":"view"},{"type":"function","name":"withdraw","inputs":[{"name":"amount","type":"uint256","internalType":"uint256"}],"outputs":[],"stateMutability":"nonpayable"},{"type":"event","name":"Initialized","inputs":[{"name":"version","type":"uint64","indexed":false,"internalType":"uint64"}],"anonymous":false},{"type":"event","name":"MaxRewardUpdated","inputs":[{"name":"newMaxReward","type":"uint256","indexed":false,"internalType":"uint256"}],"anonymous":false},{"type":"event","name":"MaxSpeedUpdated","inputs":[{"name":"newMaxSpeed","type":"uint256","indexed":false,"internalType":"uint256"}],"anonymous":false},{"type":"event","name":"MinRewardUpdated","inputs":[{"name":"newMinReward","type":"uint256","indexed":false,"internalType":"uint256"}],"anonymous":false},{"type":"event","name":"MinSpeedUpdated","inputs":[{"name":"newMinSpeed","type":"uint256","indexed":false,"internalType":"uint256"}],"anonymous":false},{"type":"event","name":"OwnershipTransferred","inputs":[{"name":"previousOwner","type":"address","indexed":true,"internalType":"address"},{"name":"newOwner","type":"address","indexed":true,"internalType":"address"}],"anonymous":false},{"type":"event","name":"ProverRegistered","inputs":[{"name":"prover","type":"address","indexed":false,"internalType":"address"},{"name":"speed","type":"uint256","indexed":false,"internalType":"uint256"},{"name":"endpoint","type":"string","indexed":false,"internalType":"string"}],"anonymous":false},{"type":"event","name":"ProverSlashed","inputs":[{"name":"prover","type":"address","indexed":false,"internalType":"address"},{"name":"taskId","type":"bytes32","indexed":false,"internalType":"bytes32"},{"name":"imageId","type":"bytes32","indexed":false,"internalType":"bytes32"}],"anonymous":false},{"type":"event","name":"SpeedUpdated","inputs":[{"name":"prover","type":"address","indexed":false,"internalType":"address"},{"name":"newSpeed","type":"uint256","indexed":false,"internalType":"uint256"}],"anonymous":false},{"type":"event","name":"TaskFinalized","inputs":[{"name":"taskId","type":"bytes32","indexed":false,"internalType":"bytes32"},{"name":"imageId","type":"bytes32","indexed":false,"internalType":"bytes32"},{"name":"publicInputsHash","type":"bytes32","indexed":false,"internalType":"bytes32"},{"name":"proofHash","type":"bytes32","indexed":false,"internalType":"bytes32"}],"anonymous":false},{"type":"event","name":"TaskRequested","inputs":[{"name":"taskId","type":"bytes32","indexed":false,"internalType":"bytes32"},{"name":"requester","type":"address","indexed":false,"internalType":"address"},{"name":"prover","type":"address","indexed":false,"internalType":"address"},{"name":"endpoint","type":"string","indexed":false,"internalType":"string"}],"anonymous":false},{"type":"event","name":"Upgraded","inputs":[{"name":"implementation","type":"address","indexed":true,"internalType":"address"}],"anonymous":false},{"type":"event","name":"Withdrawal","inputs":[{"name":"prover","type":"address","indexed":false,"internalType":"address"},{"name":"amount","type":"uint256","indexed":false,"internalType":"uint256"}],"anonymous":false},{"type":"error","name":"AddressEmptyCode","inputs":[{"name":"target","type":"address","internalType":"address"}]},{"type":"error","name":"AddressInsufficientBalance","inputs":[{"name":"account","type":"address","internalType":"address"}]},{"type":"error","name":"ERC1967InvalidImplementation","inputs":[{"name":"implementation","type":"address","internalType":"address"}]},{"type":"error","name":"ERC1967NonPayable","inputs":[]},{"type":"error","name":"FailedInnerCall","inputs":[]},{"type":"error","name":"InsufficientFunds","inputs":[{"name":"requested","type":"uint256","internalType":"uint256"},{"name":"available","type":"uint256","internalType":"uint256"}]},{"type":"error","name":"InvalidEndpoint","inputs":[]},{"type":"error","name":"InvalidInitialization","inputs":[]},{"type":"error","name":"InvalidSpeed","inputs":[]},{"type":"error","name":"InvalidTaskId","inputs":[{"name":"taskId","type":"bytes32","internalType":"bytes32"}]},{"type":"error","name":"NoProversAvailable","inputs":[]},{"type":"error","name":"NotAssignedProver","inputs":[{"name":"prover","type":"address","internalType":"address"},{"name":"sender","type":"address","internalType":"address"}]},{"type":"error","name":"NotInitializing","inputs":[]},{"type":"error","name":"NotRegistered","inputs":[{"name":"sender","type":"address","internalType":"address"}]},{"type":"error","name":"OwnableInvalidOwner","inputs":[{"name":"owner","type":"address","internalType":"address"}]},{"type":"error","name":"OwnableUnauthorizedAccount","inputs":[{"name":"account","type":"address","internalType":"address"}]},{"type":"error","name":"ProofGenerationTimeTooSlow","inputs":[]},{"type":"error","name":"SafeERC20FailedOperation","inputs":[{"name":"token","type":"address","internalType":"address"}]},{"type":"error","name":"TaskAlreadyClaimed","inputs":[{"name":"taskId","type":"bytes32","internalType":"bytes32"}]},{"type":"error","name":"UUPSUnauthorizedCallContext","inputs":[]},{"type":"error","name":"UUPSUnsupportedProxiableUUID","inputs":[{"name":"slot","type":"bytes32","internalType":"bytes32"}]}],"bytecode":{"object":"0x60a06040523060805234801561001457600080fd5b506080516124b061003e600039600081816110680152818161109101526111d201526124b06000f3fe6080604052600436106101c25760003560e01c806398faa47f116100f7578063ba16d60011610095578063f2fde38b11610064578063f2fde38b1461059b578063f44e7d73146105bb578063f5660dbc146105db578063fc0c546a146105fb57600080fd5b8063ba16d6001461049e578063d21e1993146104b4578063e579f500146104ca578063edbf4ac21461057b57600080fd5b8063ad3cb1cc116100d1578063ad3cb1cc146103fd578063afe203a01461043b578063b19ff58614610468578063b6a1cb2b1461047e57600080fd5b806398faa47f14610390578063a00fd3c8146103b0578063a5543308146103d057600080fd5b806352d1902d11610164578063711fa58d1161013e578063711fa58d146102fe578063715018a61461031e57806386a4430c146103335780638da5cb5b1461035357600080fd5b806352d1902d146102b35780635850eac6146102c857806366a78e6c146102e857600080fd5b80632d6e449e116101a05780632d6e449e146102465780632e1a7d4d1461026a5780633a5feca21461028a5780634f1ef286146102a057600080fd5b80631ae53ac0146101c757806325c33e13146101e95780632b7ac3f314610209575b600080fd5b3480156101d357600080fd5b506101e76101e2366004611cb4565b61061b565b005b3480156101f557600080fd5b506101e7610204366004611cb4565b6106ff565b34801561021557600080fd5b50600d54610229906001600160a01b031681565b6040516001600160a01b0390911681526020015b60405180910390f35b34801561025257600080fd5b5061025c60065481565b60405190815260200161023d565b34801561027657600080fd5b506101e7610285366004611cb4565b61073c565b34801561029657600080fd5b5061025c60015481565b6101e76102ae366004611cff565b61086c565b3480156102bf57600080fd5b5061025c61088b565b3480156102d457600080fd5b506101e76102e3366004611e1b565b6108a8565b3480156102f457600080fd5b5061025c60055481565b34801561030a57600080fd5b506101e7610319366004611e95565b61092b565b34801561032a57600080fd5b506101e7610ac4565b34801561033f57600080fd5b506101e761034e366004611ee8565b610ad8565b34801561035f57600080fd5b507f9016d09d72d40fdae2fd8ceac6b6234c7706214fd39c1cd1e609a0528c199300546001600160a01b0316610229565b34801561039c57600080fd5b5061025c6103ab366004611cb4565b610c10565b3480156103bc57600080fd5b506101e76103cb366004611f1a565b610c3d565b3480156103dc57600080fd5b5061025c6103eb366004611f66565b60096020526000908152604090205481565b34801561040957600080fd5b5061042e604051806040016040528060058152602001640352e302e360dc1b81525081565b60405161023d9190611fa5565b34801561044757600080fd5b5061025c610456366004611f66565b60086020526000908152604090205481565b34801561047457600080fd5b5061025c60025481565b34801561048a57600080fd5b506101e7610499366004611cb4565b610c4d565b3480156104aa57600080fd5b5061025c60045481565b3480156104c057600080fd5b5061025c60035481565b3480156104d657600080fd5b506105356104e5366004611cb4565b600a60205260009081526040902080546001820154600283015460038401546004850154600586015460068701546007909701546001600160a01b03968716979590961695939492939192909188565b604080516001600160a01b03998a168152989097166020890152958701949094526060860192909252608085015260a084015260c083015260e08201526101000161023d565b34801561058757600080fd5b506101e7610596366004611fd8565b610c8a565b3480156105a757600080fd5b506101e76105b6366004611f66565b610df1565b3480156105c757600080fd5b5061025c6105d6366004612036565b610e2f565b3480156105e757600080fd5b5061042e6105f6366004611f66565b610ecd565b34801561060757600080fd5b50600054610229906001600160a01b031681565b610626600b33610f67565b61064a5760405163bfc6c33760e01b81523360048201526024015b60405180910390fd5b60035481111561066d5760405163847538eb60e01b815260040160405180910390fd5b6002548110156106b05760028190556040518181527f435db174dbd2bb1373fa8173f35546fb59858b457d1540f68f0fbd8b9bf69a059060200160405180910390a15b33600081815260086020908152604091829020849055815192835282018390527f5d824a46561d65b72fd28a95019cca9830bf19ea00d6c605cce0c66586c57a7491015b60405180910390a150565b610707610f8e565b60058190556040518181527f710fe9c916e93b1ade632240c1207ef6f84a7b62be58bd48c773b4435a842d14906020016106f4565b610747600b33610f67565b6107665760405163bfc6c33760e01b8152336004820152602401610641565b336000908152600960205260408120546001546107839190612093565b9050808211156107af5760405162fae2d560e21b81526004810183905260248101829052604401610641565b33600090815260096020526040812080548492906107ce9084906120a6565b90915550506001546107e083836120a6565b1015610818573360009081526008602090815260408083208390556007909152812061080b91611c66565b610816600b33610fe9565b505b60005461082f906001600160a01b03163384610ffe565b60408051338152602081018490527f7fcf532c15f0a6db0bd6d0e038bea71d30d808c7d98cb3bf7268a95bf5081b65910160405180910390a15050565b61087461105d565b61087d82611102565b610887828261110a565b5050565b60006108956111c7565b5060008051602061245b83398151915290565b60005460015460405163d505accf60e01b81526001600160a01b039092169163d505accf916108e591339130918a908a908a908a906004016120b9565b600060405180830381600087803b1580156108ff57600080fd5b505af1158015610913573d6000803e3d6000fd5b50505050610922878787611210565b50505050505050565b6000848152600a602052604090819020600d546003820154925163ab750e7560e01b815291926001600160a01b039091169163ab750e759161097591879187918a90600401612123565b60006040518083038186803b15801561098d57600080fd5b505afa1580156109a1573d6000803e3d6000fd5b505050508060040154841415806109e45750806005015483836040516020016109cb92919061214a565b6040516020818303038152906040528051906020012014155b15610abd576001810180546001600160a01b039081166000908152600860209081526040808320839055935490921681526007909152908120610a2691611c66565b6001810154610a4090600b906001600160a01b0316610fe9565b50610a6a336001548360020154610a579190612093565b6000546001600160a01b03169190610ffe565b60018101546003820154604080516001600160a01b039093168352602083018890528201527f57e64eaa62fd489da654cce6fe55d48311e3ea8458ee62f7e46c00f68cb8bab29060600160405180910390a15b5050505050565b610acc610f8e565b610ad66000611359565b565b6000848152600a6020526040902080546001600160a01b0316610b1157604051633957b7f560e21b815260048101869052602401610641565b8060020154600003610b395760405163053da19760e11b815260048101869052602401610641565b60018101546001600160a01b03163314610b7d576001810154604051632ffebfbf60e01b81526001600160a01b039091166004820152336024820152604401610641565b600381018490556004810183905560058101829055600281018054600091829055338252600960205260408220805491928392610bbb908490612093565b90915550506040805187815260208101879052908101859052606081018490527f26b9a442d6ce2b178fcfc8f2eaa71dabd781febf0a15a389f114bd9800d5d7569060800160405180910390a1505050505050565b600080610c1b6113ca565b90506000610c288261147c565b9050610c358483836114eb565b949350505050565b610c48838383611210565b505050565b610c55610f8e565b60048190556040518181527fcad768f1becfe79fe3b2c8f0712f6b221134152382f236ccdf94fe376df83a76906020016106f4565b7ff0c57e16840df040f15088dc2f81fe391c3923bec73e23a9662efc9c229c6a008054600160401b810460ff16159067ffffffffffffffff16600081158015610cd05750825b905060008267ffffffffffffffff166001148015610ced5750303b155b905081158015610cfb575080155b15610d195760405163f92ee8a960e01b815260040160405180910390fd5b845467ffffffffffffffff191660011785558315610d4357845460ff60401b1916600160401b1785555b610d4c33611743565b610d54611754565b600d80546001600160a01b03808f166001600160a01b03199283161790925560008054928e169290911691909117905560018a905560048990556005889055600387905560068690558315610de357845460ff60401b19168555604051600181527fc7f505b2f371ae2175ee4913f4499e1f2633a7b5936321eed1cdaeb6115181d29060200160405180910390a15b505050505050505050505050565b610df9610f8e565b6001600160a01b038116610e2357604051631e4fbdf760e01b815260006004820152602401610641565b610e2c81611359565b50565b600080610e3a6113ca565b90506000610e478261147c565b60005460405163d505accf60e01b81529192506001600160a01b03169063d505accf90610e84903390309086908d908d908d908d906004016120b9565b600060405180830381600087803b158015610e9e57600080fd5b505af1158015610eb2573d6000803e3d6000fd5b50505050610ec18883836114eb565b98975050505050505050565b60076020526000908152604090208054610ee69061215e565b80601f0160208091040260200160405190810160405280929190818152602001828054610f129061215e565b8015610f5f5780601f10610f3457610100808354040283529160200191610f5f565b820191906000526020600020905b815481529060010190602001808311610f4257829003601f168201915b505050505081565b6001600160a01b038116600090815260018301602052604081205415155b90505b92915050565b33610fc07f9016d09d72d40fdae2fd8ceac6b6234c7706214fd39c1cd1e609a0528c199300546001600160a01b031690565b6001600160a01b031614610ad65760405163118cdaa760e01b8152336004820152602401610641565b6000610f85836001600160a01b03841661175c565b6040516001600160a01b03838116602483015260448201839052610c4891859182169063a9059cbb906064015b604051602081830303815290604052915060e01b6020820180516001600160e01b03838183161783525050505061184f565b306001600160a01b037f00000000000000000000000000000000000000000000000000000000000000001614806110e457507f00000000000000000000000000000000000000000000000000000000000000006001600160a01b03166110d860008051602061245b833981519152546001600160a01b031690565b6001600160a01b031614155b15610ad65760405163703e46dd60e11b815260040160405180910390fd5b610e2c610f8e565b816001600160a01b03166352d1902d6040518163ffffffff1660e01b8152600401602060405180830381865afa925050508015611164575060408051601f3d908101601f1916820190925261116191810190612198565b60015b61118c57604051634c9c8ce360e01b81526001600160a01b0383166004820152602401610641565b60008051602061245b83398151915281146111bd57604051632a87526960e21b815260048101829052602401610641565b610c4883836118b2565b306001600160a01b037f00000000000000000000000000000000000000000000000000000000000000001614610ad65760405163703e46dd60e11b815260040160405180910390fd5b60008190036112325760405163f1cbb56760e01b815260040160405180910390fd5b826000036112535760405163c79b0ba960e01b815260040160405180910390fd5b6003548311156112765760405163847538eb60e01b815260040160405180910390fd5b6002541580611286575060025483105b156112c45760028390556040518381527f435db174dbd2bb1373fa8173f35546fb59858b457d1540f68f0fbd8b9bf69a059060200160405180910390a15b336000908152600860209081526040808320869055600790915290206112eb828483612201565b506112f7600b33611908565b50600154600054611317916001600160a01b03909116903390309061191d565b7ff57fa149e63a44efb6e78e660a2002cf76e12d6b75382043a067c87f84721c503384848460405161134c94939291906122c1565b60405180910390a1505050565b7f9016d09d72d40fdae2fd8ceac6b6234c7706214fd39c1cd1e609a0528c19930080546001600160a01b031981166001600160a01b03848116918217845560405192169182907f8be0079c531659141344cd1fd0a4f28419497f9722a3daafe3b4186f6b6457e090600090a3505050565b6000806113d7600b61195c565b1161141c5760405162461bcd60e51b81526020600482015260156024820152744e6f20726567697374657265642070726f7665727360581b6044820152606401610641565b6000611428600b61195c565b6114336001436120a6565b604080519140602083015242908201526060016040516020818303038152906040528051906020012060001c61146991906122ff565b9050611476600b82611966565b91505090565b6001600160a01b0381166000908152600860205260408120546002546003546114a591906120a6565b816003546114b391906120a6565b6004546005546114c391906120a6565b6114cd9190612313565b6114d7919061232a565b6004546114e49190612093565b9392505050565b60006001600160a01b0383166115435760405162461bcd60e51b815260206004820152601a60248201527f4e6f206163746976652070726f76657220617661696c61626c650000000000006044820152606401610641565b6006546001600160a01b03841660009081526008602052604081205490919061156d908790612313565b611577919061232a565b6115819042612093565b60408051610100810182523381526001600160a01b0387166020808301919091528183018790526000606083018190526080830181905260a083015260c0820189905260e0820184905291519293509161163d9183910160006101008201905060018060a01b038084511683528060208501511660208401525060408301516040830152606083015160608301526080830151608083015260a083015160a083015260c083015160c083015260e083015160e083015292915050565b60408051808303601f1901815291815281516020928301206000818152600a8452828120855181546001600160a01b03199081166001600160a01b039283161783559587015160018301805490971690821617909555928501516002840155606085015160038401556080850151600484015560a0850151600584015560c0850151600684015560e085015160079093019290925590549094506116e4911633308761191d565b6001600160a01b0385166000908152600760205260409081902090517f57c91e1c1442d8533c7a25feeec2a38d72fa6d11d718c91eed181d6812b5486c9161173291869133918a919061233e565b60405180910390a150509392505050565b61174b611972565b610e2c816119bb565b610ad6611972565b600081815260018301602052604081205480156118455760006117806001836120a6565b8554909150600090611794906001906120a6565b90508082146117f95760008660000182815481106117b4576117b46123f0565b90600052602060002001549050808760000184815481106117d7576117d76123f0565b6000918252602080832090910192909255918252600188019052604090208390555b855486908061180a5761180a612406565b600190038181906000526020600020016000905590558560010160008681526020019081526020016000206000905560019350505050610f88565b6000915050610f88565b60006118646001600160a01b038416836119c3565b90508051600014158015611889575080806020019051810190611887919061241c565b155b15610c4857604051635274afe760e01b81526001600160a01b0384166004820152602401610641565b6118bb826119d1565b6040516001600160a01b038316907fbc7cd75a20ee27fd9adebab32041f755214dbc6bffa90cc0225b39da2e5c2d3b90600090a280511561190057610c488282611a36565b610887611aac565b6000610f85836001600160a01b038416611acb565b6040516001600160a01b0384811660248301528381166044830152606482018390526119569186918216906323b872dd9060840161102b565b50505050565b6000610f88825490565b6000610f858383611b1a565b7ff0c57e16840df040f15088dc2f81fe391c3923bec73e23a9662efc9c229c6a0054600160401b900460ff16610ad657604051631afcd79f60e31b815260040160405180910390fd5b610df9611972565b6060610f8583836000611b44565b806001600160a01b03163b600003611a0757604051634c9c8ce360e01b81526001600160a01b0382166004820152602401610641565b60008051602061245b83398151915280546001600160a01b0319166001600160a01b0392909216919091179055565b6060600080846001600160a01b031684604051611a53919061243e565b600060405180830381855af49150503d8060008114611a8e576040519150601f19603f3d011682016040523d82523d6000602084013e611a93565b606091505b5091509150611aa3858383611be1565b95945050505050565b3415610ad65760405163b398979f60e01b815260040160405180910390fd5b6000818152600183016020526040812054611b1257508154600181810184556000848152602080822090930184905584548482528286019093526040902091909155610f88565b506000610f88565b6000826000018281548110611b3157611b316123f0565b9060005260206000200154905092915050565b606081471015611b695760405163cd78605960e01b8152306004820152602401610641565b600080856001600160a01b03168486604051611b85919061243e565b60006040518083038185875af1925050503d8060008114611bc2576040519150601f19603f3d011682016040523d82523d6000602084013e611bc7565b606091505b5091509150611bd7868383611be1565b9695505050505050565b606082611bf657611bf182611c3d565b6114e4565b8151158015611c0d57506001600160a01b0384163b155b15611c3657604051639996b31560e01b81526001600160a01b0385166004820152602401610641565b50806114e4565b805115611c4d5780518082602001fd5b604051630a12f52160e11b815260040160405180910390fd5b508054611c729061215e565b6000825580601f10611c82575050565b601f016020900490600052602060002090810190610e2c91905b80821115611cb05760008155600101611c9c565b5090565b600060208284031215611cc657600080fd5b5035919050565b80356001600160a01b0381168114611ce457600080fd5b919050565b634e487b7160e01b600052604160045260246000fd5b60008060408385031215611d1257600080fd5b611d1b83611ccd565b9150602083013567ffffffffffffffff80821115611d3857600080fd5b818501915085601f830112611d4c57600080fd5b813581811115611d5e57611d5e611ce9565b604051601f8201601f19908116603f01168101908382118183101715611d8657611d86611ce9565b81604052828152886020848701011115611d9f57600080fd5b8260208601602083013760006020848301015280955050505050509250929050565b60008083601f840112611dd357600080fd5b50813567ffffffffffffffff811115611deb57600080fd5b602083019150836020828501011115611e0357600080fd5b9250929050565b803560ff81168114611ce457600080fd5b600080600080600080600060c0888a031215611e3657600080fd5b87359650602088013567ffffffffffffffff811115611e5457600080fd5b611e608a828b01611dc1565b90975095505060408801359350611e7960608901611e0a565b92506080880135915060a0880135905092959891949750929550565b60008060008060608587031215611eab57600080fd5b8435935060208501359250604085013567ffffffffffffffff811115611ed057600080fd5b611edc87828801611dc1565b95989497509550505050565b60008060008060808587031215611efe57600080fd5b5050823594602084013594506040840135936060013592509050565b600080600060408486031215611f2f57600080fd5b83359250602084013567ffffffffffffffff811115611f4d57600080fd5b611f5986828701611dc1565b9497909650939450505050565b600060208284031215611f7857600080fd5b610f8582611ccd565b60005b83811015611f9c578181015183820152602001611f84565b50506000910152565b6020815260008251806020840152611fc4816040850160208701611f81565b601f01601f19169190910160400192915050565b600080600080600080600060e0888a031215611ff357600080fd5b611ffc88611ccd565b965061200a60208901611ccd565b96999698505050506040850135946060810135946080820135945060a0820135935060c0909101359150565b600080600080600060a0868803121561204e57600080fd5b853594506020860135935061206560408701611e0a565b94979396509394606081013594506080013592915050565b634e487b7160e01b600052601160045260246000fd5b80820180821115610f8857610f8861207d565b81810381811115610f8857610f8861207d565b6001600160a01b0397881681529590961660208601526040850193909352606084019190915260ff16608083015260a082015260c081019190915260e00190565b81835281816020850137506000828201602090810191909152601f909101601f19169091010190565b6060815260006121376060830186886120fa565b6020830194909452506040015292915050565b602081526000610c356020830184866120fa565b600181811c9082168061217257607f821691505b60208210810361219257634e487b7160e01b600052602260045260246000fd5b50919050565b6000602082840312156121aa57600080fd5b5051919050565b601f821115610c48576000816000526020600020601f850160051c810160208610156121da5750805b601f850160051c820191505b818110156121f9578281556001016121e6565b505050505050565b67ffffffffffffffff83111561221957612219611ce9565b61222d83612227835461215e565b836121b1565b6000601f84116001811461226157600085156122495750838201355b600019600387901b1c1916600186901b178355610abd565b600083815260209020601f19861690835b828110156122925786850135825560209485019460019092019101612272565b50868210156122af5760001960f88860031b161c19848701351681555b505060018560011b0183555050505050565b60018060a01b0385168152836020820152606060408201526000611bd76060830184866120fa565b634e487b7160e01b600052601260045260246000fd5b60008261230e5761230e6122e9565b500690565b8082028115828204841417610f8857610f8861207d565b600082612339576123396122e9565b500490565b8481526000602060018060a01b03808716602085015280861660408501525060806060840152600084546123718161215e565b80608087015260a060018084166000811461239357600181146123af576123df565b60ff19851660a08a015260a084151560051b8a010195506123df565b89600052602060002060005b858110156123d65781548b82018601529083019088016123bb565b8a0160a0019650505b50939b9a5050505050505050505050565b634e487b7160e01b600052603260045260246000fd5b634e487b7160e01b600052603160045260246000fd5b60006020828403121561242e57600080fd5b815180151581146114e457600080fd5b60008251612450818460208701611f81565b919091019291505056fe360894a13ba1a3210667c828492db98dca3e2076cc3735a920a3ca505d382bbca2646970667358221220f1e2f8f2acad1ed0a6402cb9687f1fd18f5efdb3e9ccabe20a26b7b79c1f0c8364736f6c63430008170033","linkReferences":{}},"methodIdentifiers":{"UPGRADE_INTERFACE_VERSION()":"ad3cb1cc","benchmankCircuitCycleCount()":"2d6e449e","endpoints(address)":"f5660dbc","finalizeTask(bytes32,bytes32,bytes32,bytes32)":"86a4430c","initialize(address,address,uint256,uint256,uint256,uint256,uint256)":"edbf4ac2","maxReward()":"66a78e6c","maxSpeed()":"d21e1993","minReward()":"ba16d600","minSpeed()":"b19ff586","owner()":"8da5cb5b","proverRewards(address)":"a5543308","proverSpeeds(address)":"afe203a0","proxiableUUID()":"52d1902d","register(uint256,string)":"a00fd3c8","registerPermit(uint256,string,uint256,uint8,bytes32,bytes32)":"5850eac6","registerThreshold()":"3a5feca2","renounceOwnership()":"715018a6","requestTask(uint256)":"98faa47f","requestTaskPermit(uint256,uint256,uint8,bytes32,bytes32)":"f44e7d73","setMaxReward(uint256)":"25c33e13","setMinReward(uint256)":"b6a1cb2b","slash(bytes32,bytes32,bytes)":"711fa58d","tasks(bytes32)":"e579f500","token()":"fc0c546a","transferOwnership(address)":"f2fde38b","updateSpeed(uint256)":"1ae53ac0","upgradeToAndCall(address,bytes)":"4f1ef286","verifier()":"2b7ac3f3","withdraw(uint256)":"2e1a7d4d"},"id":0}