{"abi":[{"type":"function","name":"UPGRADE_INTERFACE_VERSION","inputs":[],"outputs":[{"name":"","type":"string","internalType":"string"}],"stateMutability":"view"},{"type":"function","name":"capabilities","inputs":[{"name":"","type":"address","internalType":"address"}],"outputs":[{"name":"endpoint","type":"string","internalType":"string"},{"name":"speed","type":"uint256","internalType":"uint256"}],"stateMutability":"view"},{"type":"function","name":"initialize","inputs":[{"name":"_token","type":"address","internalType":"address"},{"name":"_registerThreshold","type":"uint256","internalType":"uint256"},{"name":"_taskCost","type":"uint256","internalType":"uint256"}],"outputs":[],"stateMutability":"nonpayable"},{"type":"function","name":"owner","inputs":[],"outputs":[{"name":"","type":"address","internalType":"address"}],"stateMutability":"view"},{"type":"function","name":"proxiableUUID","inputs":[],"outputs":[{"name":"","type":"bytes32","internalType":"bytes32"}],"stateMutability":"view"},{"type":"function","name":"register","inputs":[{"name":"capability","type":"tuple","internalType":"struct TaskManager.ReportedCapability","components":[{"name":"endpoint","type":"string","internalType":"string"},{"name":"speed","type":"uint256","internalType":"uint256"}]}],"outputs":[],"stateMutability":"nonpayable"},{"type":"function","name":"registerPermit","inputs":[{"name":"capability","type":"tuple","internalType":"struct TaskManager.ReportedCapability","components":[{"name":"endpoint","type":"string","internalType":"string"},{"name":"speed","type":"uint256","internalType":"uint256"}]},{"name":"deadline","type":"uint256","internalType":"uint256"},{"name":"v","type":"uint8","internalType":"uint8"},{"name":"r","type":"bytes32","internalType":"bytes32"},{"name":"s","type":"bytes32","internalType":"bytes32"}],"outputs":[],"stateMutability":"nonpayable"},{"type":"function","name":"registerThreshold","inputs":[],"outputs":[{"name":"","type":"uint256","internalType":"uint256"}],"stateMutability":"view"},{"type":"function","name":"registeredProvers","inputs":[{"name":"","type":"uint256","internalType":"uint256"}],"outputs":[{"name":"","type":"address","internalType":"address"}],"stateMutability":"view"},{"type":"function","name":"renounceOwnership","inputs":[],"outputs":[],"stateMutability":"nonpayable"},{"type":"function","name":"requestTask","inputs":[],"outputs":[],"stateMutability":"nonpayable"},{"type":"function","name":"requestTaskPermit","inputs":[{"name":"deadline","type":"uint256","internalType":"uint256"},{"name":"v","type":"uint8","internalType":"uint8"},{"name":"r","type":"bytes32","internalType":"bytes32"},{"name":"s","type":"bytes32","internalType":"bytes32"}],"outputs":[],"stateMutability":"nonpayable"},{"type":"function","name":"taskCost","inputs":[],"outputs":[{"name":"","type":"uint256","internalType":"uint256"}],"stateMutability":"view"},{"type":"function","name":"tasks","inputs":[{"name":"","type":"bytes32","internalType":"bytes32"}],"outputs":[{"name":"requester","type":"address","internalType":"address"},{"name":"prover","type":"address","internalType":"address"},{"name":"reward","type":"uint256","internalType":"uint256"}],"stateMutability":"view"},{"type":"function","name":"token","inputs":[],"outputs":[{"name":"","type":"address","internalType":"address"}],"stateMutability":"view"},{"type":"function","name":"transferOwnership","inputs":[{"name":"newOwner","type":"address","internalType":"address"}],"outputs":[],"stateMutability":"nonpayable"},{"type":"function","name":"upgradeToAndCall","inputs":[{"name":"newImplementation","type":"address","internalType":"address"},{"name":"data","type":"bytes","internalType":"bytes"}],"outputs":[],"stateMutability":"payable"},{"type":"event","name":"Initialized","inputs":[{"name":"version","type":"uint64","indexed":false,"internalType":"uint64"}],"anonymous":false},{"type":"event","name":"OwnershipTransferred","inputs":[{"name":"previousOwner","type":"address","indexed":true,"internalType":"address"},{"name":"newOwner","type":"address","indexed":true,"internalType":"address"}],"anonymous":false},{"type":"event","name":"TaskRequested","inputs":[{"name":"taskId","type":"bytes32","indexed":false,"internalType":"bytes32"},{"name":"requester","type":"address","indexed":false,"internalType":"address"},{"name":"prover","type":"address","indexed":false,"internalType":"address"},{"name":"endpoint","type":"string","indexed":false,"internalType":"string"}],"anonymous":false},{"type":"event","name":"Upgraded","inputs":[{"name":"implementation","type":"address","indexed":true,"internalType":"address"}],"anonymous":false},{"type":"error","name":"AddressEmptyCode","inputs":[{"name":"target","type":"address","internalType":"address"}]},{"type":"error","name":"AddressInsufficientBalance","inputs":[{"name":"account","type":"address","internalType":"address"}]},{"type":"error","name":"ERC1967InvalidImplementation","inputs":[{"name":"implementation","type":"address","internalType":"address"}]},{"type":"error","name":"ERC1967NonPayable","inputs":[]},{"type":"error","name":"FailedInnerCall","inputs":[]},{"type":"error","name":"InvalidInitialization","inputs":[]},{"type":"error","name":"NotInitializing","inputs":[]},{"type":"error","name":"OwnableInvalidOwner","inputs":[{"name":"owner","type":"address","internalType":"address"}]},{"type":"error","name":"OwnableUnauthorizedAccount","inputs":[{"name":"account","type":"address","internalType":"address"}]},{"type":"error","name":"SafeERC20FailedOperation","inputs":[{"name":"token","type":"address","internalType":"address"}]},{"type":"error","name":"UUPSUnauthorizedCallContext","inputs":[]},{"type":"error","name":"UUPSUnsupportedProxiableUUID","inputs":[{"name":"slot","type":"bytes32","internalType":"bytes32"}]}],"bytecode":{"object":"0x60a06040523060805234801561001457600080fd5b5060805161163861003e600039600081816108150152818161083e0152610b4101526116386000f3fe6080604052600436106100fe5760003560e01c8063715018a611610095578063ad3cb1cc11610064578063ad3cb1cc14610299578063c67816a0146102d7578063e579f500146102f7578063f2fde38b14610366578063fc0c546a1461038657600080fd5b8063715018a6146101f95780637a1ac61e1461020e5780637a220dfc1461022e5780638da5cb5b1461025c57600080fd5b80635205e858116100d15780635205e8581461018f57806352d1902d146101a45780636cd03718146101b95780636f9a0941146101d957600080fd5b806304991bf3146101035780633a5feca21461014057806347f0a384146101645780634f1ef2861461017a575b600080fd5b34801561010f57600080fd5b5061012361011e366004610ff9565b6103a6565b6040516001600160a01b0390911681526020015b60405180910390f35b34801561014c57600080fd5b5061015660015481565b604051908152602001610137565b34801561017057600080fd5b5061015660025481565b61018d610188366004611044565b6103d0565b005b34801561019b57600080fd5b5061018d6103ef565b3480156101b057600080fd5b506101566103f9565b3480156101c557600080fd5b5061018d6101d436600461111e565b610416565b3480156101e557600080fd5b5061018d6101f436600461116c565b6104de565b34801561020557600080fd5b5061018d61055d565b34801561021a57600080fd5b5061018d6102293660046111d5565b61056f565b34801561023a57600080fd5b5061024e610249366004611208565b6106ae565b604051610137929190611273565b34801561026857600080fd5b507f9016d09d72d40fdae2fd8ceac6b6234c7706214fd39c1cd1e609a0528c199300546001600160a01b0316610123565b3480156102a557600080fd5b506102ca604051806040016040528060058152602001640352e302e360dc1b81525081565b6040516101379190611295565b3480156102e357600080fd5b5061018d6102f23660046112a8565b610752565b34801561030357600080fd5b50610340610312366004610ff9565b6005602052600090815260409020805460018201546002909201546001600160a01b03918216929091169083565b604080516001600160a01b03948516815293909216602084015290820152606001610137565b34801561037257600080fd5b5061018d610381366004611208565b6107cf565b34801561039257600080fd5b50600054610123906001600160a01b031681565b600381815481106103b657600080fd5b6000918252602090912001546001600160a01b0316905081565b6103d861080a565b6103e1826108af565b6103eb82826108b7565b5050565b6103f7610979565b565b6000610403610b36565b506000805160206115e383398151915290565b3361045a5760405162461bcd60e51b815260206004820152600f60248201526e496e76616c6964206164647265737360881b60448201526064015b60405180910390fd5b33600090815260046020526040902081906104758282611367565b5050600380546001818101835560009283527fc2575a0e9e593c00f959f8c92f12db2869c3395a3b0502d05e2516446f71f85b90910180546001600160a01b03191633908117909155905491546104db926001600160a01b039190911691903090610b7f565b50565b60005460015460405163d505accf60e01b81526001600160a01b039092169163d505accf9161051b91339130918a908a908a908a90600401611460565b600060405180830381600087803b15801561053557600080fd5b505af1158015610549573d6000803e3d6000fd5b5050505061055685610416565b5050505050565b610565610bd9565b6103f76000610c34565b7ff0c57e16840df040f15088dc2f81fe391c3923bec73e23a9662efc9c229c6a008054600160401b810460ff16159067ffffffffffffffff166000811580156105b55750825b905060008267ffffffffffffffff1660011480156105d25750303b155b9050811580156105e0575080155b156105fe5760405163f92ee8a960e01b815260040160405180910390fd5b845467ffffffffffffffff19166001178555831561062857845460ff60401b1916600160401b1785555b61063133610ca5565b610639610cb6565b600080546001600160a01b0319166001600160a01b038a161790556001879055600286905583156106a457845460ff60401b19168555604051600181527fc7f505b2f371ae2175ee4913f4499e1f2633a7b5936321eed1cdaeb6115181d29060200160405180910390a15b5050505050505050565b6004602052600090815260409020805481906106c9906112e3565b80601f01602080910402602001604051908101604052809291908181526020018280546106f5906112e3565b80156107425780601f1061071757610100808354040283529160200191610742565b820191906000526020600020905b81548152906001019060200180831161072557829003601f168201915b5050505050908060010154905082565b60005460025460405163d505accf60e01b81526001600160a01b039092169163d505accf9161078f91339130918a908a908a908a90600401611460565b600060405180830381600087803b1580156107a957600080fd5b505af11580156107bd573d6000803e3d6000fd5b505050506107c9610979565b50505050565b6107d7610bd9565b6001600160a01b03811661080157604051631e4fbdf760e01b815260006004820152602401610451565b6104db81610c34565b306001600160a01b037f000000000000000000000000000000000000000000000000000000000000000016148061089157507f00000000000000000000000000000000000000000000000000000000000000006001600160a01b03166108856000805160206115e3833981519152546001600160a01b031690565b6001600160a01b031614155b156103f75760405163703e46dd60e11b815260040160405180910390fd5b6104db610bd9565b816001600160a01b03166352d1902d6040518163ffffffff1660e01b8152600401602060405180830381865afa925050508015610911575060408051601f3d908101601f1916820190925261090e918101906114a1565b60015b61093957604051634c9c8ce360e01b81526001600160a01b0383166004820152602401610451565b6000805160206115e3833981519152811461096a57604051632a87526960e21b815260048101829052602401610451565b6109748383610cbe565b505050565b6003546109c05760405162461bcd60e51b81526020600482015260156024820152744e6f20726567697374657265642070726f7665727360581b6044820152606401610451565b6003805460408051426020808301919091523360601b6bffffffffffffffffffffffff191682840152825160348184030181526054909201909252805191012060009291610a0d916114ba565b81548110610a1d57610a1d6114dc565b6000918252602080832091909101546040805160608082018352338083526001600160a01b03948516838701818152600280548688019081528751808b0186905283518a16818a01528151818801528851808203909701875260800188528551958a0195909520808b526005909952958920855181549089166001600160a01b03199182161782559151600182018054918a169190931617909155925192850192909255925495549096509094610adb939190911691903090610b7f565b6001600160a01b0383166000908152600460205260409081902090517f57c91e1c1442d8533c7a25feeec2a38d72fa6d11d718c91eed181d6812b5486c91610b2991849133918891906114f2565b60405180910390a1505050565b306001600160a01b037f000000000000000000000000000000000000000000000000000000000000000016146103f75760405163703e46dd60e11b815260040160405180910390fd5b604080516001600160a01b0385811660248301528416604482015260648082018490528251808303909101815260849091019091526020810180516001600160e01b03166323b872dd60e01b1790526107c9908590610d14565b33610c0b7f9016d09d72d40fdae2fd8ceac6b6234c7706214fd39c1cd1e609a0528c199300546001600160a01b031690565b6001600160a01b0316146103f75760405163118cdaa760e01b8152336004820152602401610451565b7f9016d09d72d40fdae2fd8ceac6b6234c7706214fd39c1cd1e609a0528c19930080546001600160a01b031981166001600160a01b03848116918217845560405192169182907f8be0079c531659141344cd1fd0a4f28419497f9722a3daafe3b4186f6b6457e090600090a3505050565b610cad610d77565b6104db81610dc0565b6103f7610d77565b610cc782610dc8565b6040516001600160a01b038316907fbc7cd75a20ee27fd9adebab32041f755214dbc6bffa90cc0225b39da2e5c2d3b90600090a2805115610d0c576109748282610e2d565b6103eb610ea3565b6000610d296001600160a01b03841683610ec2565b90508051600014158015610d4e575080806020019051810190610d4c91906115a4565b155b1561097457604051635274afe760e01b81526001600160a01b0384166004820152602401610451565b7ff0c57e16840df040f15088dc2f81fe391c3923bec73e23a9662efc9c229c6a0054600160401b900460ff166103f757604051631afcd79f60e31b815260040160405180910390fd5b6107d7610d77565b806001600160a01b03163b600003610dfe57604051634c9c8ce360e01b81526001600160a01b0382166004820152602401610451565b6000805160206115e383398151915280546001600160a01b0319166001600160a01b0392909216919091179055565b6060600080846001600160a01b031684604051610e4a91906115c6565b600060405180830381855af49150503d8060008114610e85576040519150601f19603f3d011682016040523d82523d6000602084013e610e8a565b606091505b5091509150610e9a858383610ed7565b95945050505050565b34156103f75760405163b398979f60e01b815260040160405180910390fd5b6060610ed083836000610f33565b9392505050565b606082610eec57610ee782610fd0565b610ed0565b8151158015610f0357506001600160a01b0384163b155b15610f2c57604051639996b31560e01b81526001600160a01b0385166004820152602401610451565b5092915050565b606081471015610f585760405163cd78605960e01b8152306004820152602401610451565b600080856001600160a01b03168486604051610f7491906115c6565b60006040518083038185875af1925050503d8060008114610fb1576040519150601f19603f3d011682016040523d82523d6000602084013e610fb6565b606091505b5091509150610fc6868383610ed7565b9695505050505050565b805115610fe05780518082602001fd5b604051630a12f52160e11b815260040160405180910390fd5b60006020828403121561100b57600080fd5b5035919050565b80356001600160a01b038116811461102957600080fd5b919050565b634e487b7160e01b600052604160045260246000fd5b6000806040838503121561105757600080fd5b61106083611012565b9150602083013567ffffffffffffffff8082111561107d57600080fd5b818501915085601f83011261109157600080fd5b8135818111156110a3576110a361102e565b604051601f8201601f19908116603f011681019083821181831017156110cb576110cb61102e565b816040528281528860208487010111156110e457600080fd5b8260208601602083013760006020848301015280955050505050509250929050565b60006040828403121561111857600080fd5b50919050565b60006020828403121561113057600080fd5b813567ffffffffffffffff81111561114757600080fd5b61115384828501611106565b949350505050565b803560ff8116811461102957600080fd5b600080600080600060a0868803121561118457600080fd5b853567ffffffffffffffff81111561119b57600080fd5b6111a788828901611106565b955050602086013593506111bd6040870161115b565b94979396509394606081013594506080013592915050565b6000806000606084860312156111ea57600080fd5b6111f384611012565b95602085013595506040909401359392505050565b60006020828403121561121a57600080fd5b610ed082611012565b60005b8381101561123e578181015183820152602001611226565b50506000910152565b6000815180845261125f816020860160208601611223565b601f01601f19169290920160200192915050565b6040815260006112866040830185611247565b90508260208301529392505050565b602081526000610ed06020830184611247565b600080600080608085870312156112be57600080fd5b843593506112ce6020860161115b565b93969395505050506040820135916060013590565b600181811c908216806112f757607f821691505b60208210810361111857634e487b7160e01b600052602260045260246000fd5b601f821115610974576000816000526020600020601f850160051c810160208610156113405750805b601f850160051c820191505b8181101561135f5782815560010161134c565b505050505050565b8135601e1983360301811261137b57600080fd5b8201803567ffffffffffffffff81111561139457600080fd5b602081360381840113156113a757600080fd5b6113bb826113b586546112e3565b86611317565b6000601f8311600181146113f157600084156113d957508482018301355b600019600386901b1c1916600185901b17865561144e565b600086815260209020601f19851690835b82811015611423578785018601358255938501936001909101908501611402565b50858210156114425760001960f88760031b161c198585890101351681555b505060018460011b0186555b50508085013560018501555050505050565b6001600160a01b0397881681529590961660208601526040850193909352606084019190915260ff16608083015260a082015260c081019190915260e00190565b6000602082840312156114b357600080fd5b5051919050565b6000826114d757634e487b7160e01b600052601260045260246000fd5b500690565b634e487b7160e01b600052603260045260246000fd5b8481526000602060018060a01b0380871660208501528086166040850152506080606084015260008454611525816112e3565b80608087015260a0600180841660008114611547576001811461156357611593565b60ff19851660a08a015260a084151560051b8a01019550611593565b89600052602060002060005b8581101561158a5781548b820186015290830190880161156f565b8a0160a0019650505b50939b9a5050505050505050505050565b6000602082840312156115b657600080fd5b81518015158114610ed057600080fd5b600082516115d8818460208701611223565b919091019291505056fe360894a13ba1a3210667c828492db98dca3e2076cc3735a920a3ca505d382bbca264697066735822122005764159cefcd97c66a50555cd503f21e693c57e5e4e6172b9faf6f75aa8f88a64736f6c63430008170033","linkReferences":{}},"methodIdentifiers":{"UPGRADE_INTERFACE_VERSION()":"ad3cb1cc","capabilities(address)":"7a220dfc","initialize(address,uint256,uint256)":"7a1ac61e","owner()":"8da5cb5b","proxiableUUID()":"52d1902d","register((string,uint256))":"6cd03718","registerPermit((string,uint256),uint256,uint8,bytes32,bytes32)":"6f9a0941","registerThreshold()":"3a5feca2","registeredProvers(uint256)":"04991bf3","renounceOwnership()":"715018a6","requestTask()":"5205e858","requestTaskPermit(uint256,uint8,bytes32,bytes32)":"c67816a0","taskCost()":"47f0a384","tasks(bytes32)":"e579f500","token()":"fc0c546a","transferOwnership(address)":"f2fde38b","upgradeToAndCall(address,bytes)":"4f1ef286"},"id":51}