{"abi":[{"type":"function","name":"UPGRADE_INTERFACE_VERSION","inputs":[],"outputs":[{"name":"","type":"string","internalType":"string"}],"stateMutability":"view"},{"type":"function","name":"bid","inputs":[{"name":"amount","type":"uint256","internalType":"uint256"}],"outputs":[],"stateMutability":"nonpayable"},{"type":"function","name":"endpoints","inputs":[{"name":"","type":"address","internalType":"address"}],"outputs":[{"name":"","type":"string","internalType":"string"}],"stateMutability":"view"},{"type":"function","name":"finalizeTask","inputs":[{"name":"taskId","type":"bytes32","internalType":"bytes32"},{"name":"imageId","type":"bytes32","internalType":"bytes32"},{"name":"publicInputsHash","type":"bytes32","internalType":"bytes32"},{"name":"proofHash","type":"bytes32","internalType":"bytes32"}],"outputs":[],"stateMutability":"nonpayable"},{"type":"function","name":"highestBid","inputs":[],"outputs":[{"name":"bidder","type":"address","internalType":"address"},{"name":"amount","type":"uint256","internalType":"uint256"},{"name":"slot","type":"uint256","internalType":"uint256"}],"stateMutability":"view"},{"type":"function","name":"initialize","inputs":[{"name":"_verifier","type":"address","internalType":"address"},{"name":"_token","type":"address","internalType":"address"},{"name":"_registerThreshold","type":"uint256","internalType":"uint256"},{"name":"_slotDuration","type":"uint256","internalType":"uint256"}],"outputs":[],"stateMutability":"nonpayable"},{"type":"function","name":"owner","inputs":[],"outputs":[{"name":"","type":"address","internalType":"address"}],"stateMutability":"view"},{"type":"function","name":"proxiableUUID","inputs":[],"outputs":[{"name":"","type":"bytes32","internalType":"bytes32"}],"stateMutability":"view"},{"type":"function","name":"register","inputs":[{"name":"endpoint","type":"string","internalType":"string"}],"outputs":[],"stateMutability":"nonpayable"},{"type":"function","name":"registerPermit","inputs":[{"name":"endpoint","type":"string","internalType":"string"},{"name":"deadline","type":"uint256","internalType":"uint256"},{"name":"v","type":"uint8","internalType":"uint8"},{"name":"r","type":"bytes32","internalType":"bytes32"},{"name":"s","type":"bytes32","internalType":"bytes32"}],"outputs":[],"stateMutability":"nonpayable"},{"type":"function","name":"registerThreshold","inputs":[],"outputs":[{"name":"","type":"uint256","internalType":"uint256"}],"stateMutability":"view"},{"type":"function","name":"renounceOwnership","inputs":[],"outputs":[],"stateMutability":"nonpayable"},{"type":"function","name":"requestTask","inputs":[],"outputs":[{"name":"taskId","type":"bytes32","internalType":"bytes32"}],"stateMutability":"nonpayable"},{"type":"function","name":"requestTaskPermit","inputs":[{"name":"deadline","type":"uint256","internalType":"uint256"},{"name":"v","type":"uint8","internalType":"uint8"},{"name":"r","type":"bytes32","internalType":"bytes32"},{"name":"s","type":"bytes32","internalType":"bytes32"}],"outputs":[{"name":"taskId","type":"bytes32","internalType":"bytes32"}],"stateMutability":"nonpayable"},{"type":"function","name":"slash","inputs":[{"name":"taskId","type":"bytes32","internalType":"bytes32"},{"name":"publicInputsHash","type":"bytes32","internalType":"bytes32"},{"name":"proof","type":"bytes","internalType":"bytes"}],"outputs":[],"stateMutability":"nonpayable"},{"type":"function","name":"slotDuration","inputs":[],"outputs":[{"name":"","type":"uint256","internalType":"uint256"}],"stateMutability":"view"},{"type":"function","name":"slotToProver","inputs":[{"name":"","type":"uint256","internalType":"uint256"}],"outputs":[{"name":"","type":"address","internalType":"address"}],"stateMutability":"view"},{"type":"function","name":"tasks","inputs":[{"name":"","type":"bytes32","internalType":"bytes32"}],"outputs":[{"name":"requester","type":"address","internalType":"address"},{"name":"prover","type":"address","internalType":"address"},{"name":"reward","type":"uint256","internalType":"uint256"},{"name":"imageId","type":"bytes32","internalType":"bytes32"},{"name":"publicInputsHash","type":"bytes32","internalType":"bytes32"},{"name":"proofHash","type":"bytes32","internalType":"bytes32"}],"stateMutability":"view"},{"type":"function","name":"token","inputs":[],"outputs":[{"name":"","type":"address","internalType":"address"}],"stateMutability":"view"},{"type":"function","name":"transferOwnership","inputs":[{"name":"newOwner","type":"address","internalType":"address"}],"outputs":[],"stateMutability":"nonpayable"},{"type":"function","name":"upgradeToAndCall","inputs":[{"name":"newImplementation","type":"address","internalType":"address"},{"name":"data","type":"bytes","internalType":"bytes"}],"outputs":[],"stateMutability":"payable"},{"type":"function","name":"verifier","inputs":[],"outputs":[{"name":"","type":"address","internalType":"contract IRiscZeroVerifier"}],"stateMutability":"view"},{"type":"event","name":"BidPlaced","inputs":[{"name":"bidder","type":"address","indexed":false,"internalType":"address"},{"name":"amount","type":"uint256","indexed":false,"internalType":"uint256"},{"name":"slot","type":"uint256","indexed":false,"internalType":"uint256"}],"anonymous":false},{"type":"event","name":"Initialized","inputs":[{"name":"version","type":"uint64","indexed":false,"internalType":"uint64"}],"anonymous":false},{"type":"event","name":"OwnershipTransferred","inputs":[{"name":"previousOwner","type":"address","indexed":true,"internalType":"address"},{"name":"newOwner","type":"address","indexed":true,"internalType":"address"}],"anonymous":false},{"type":"event","name":"ProverSlashed","inputs":[{"name":"prover","type":"address","indexed":false,"internalType":"address"},{"name":"taskId","type":"bytes32","indexed":false,"internalType":"bytes32"},{"name":"imageId","type":"bytes32","indexed":false,"internalType":"bytes32"}],"anonymous":false},{"type":"event","name":"TaskFinalized","inputs":[{"name":"taskId","type":"bytes32","indexed":false,"internalType":"bytes32"},{"name":"imageId","type":"bytes32","indexed":false,"internalType":"bytes32"},{"name":"publicInputsHash","type":"bytes32","indexed":false,"internalType":"bytes32"},{"name":"proofHash","type":"bytes32","indexed":false,"internalType":"bytes32"}],"anonymous":false},{"type":"event","name":"TaskRequested","inputs":[{"name":"taskId","type":"bytes32","indexed":false,"internalType":"bytes32"},{"name":"requester","type":"address","indexed":false,"internalType":"address"},{"name":"prover","type":"address","indexed":false,"internalType":"address"},{"name":"endpoint","type":"string","indexed":false,"internalType":"string"}],"anonymous":false},{"type":"event","name":"TicketIssued","inputs":[{"name":"slot","type":"uint256","indexed":false,"internalType":"uint256"},{"name":"prover","type":"address","indexed":false,"internalType":"address"}],"anonymous":false},{"type":"event","name":"Upgraded","inputs":[{"name":"implementation","type":"address","indexed":true,"internalType":"address"}],"anonymous":false},{"type":"error","name":"AddressEmptyCode","inputs":[{"name":"target","type":"address","internalType":"address"}]},{"type":"error","name":"AddressInsufficientBalance","inputs":[{"name":"account","type":"address","internalType":"address"}]},{"type":"error","name":"BidTooLow","inputs":[{"name":"amount","type":"uint256","internalType":"uint256"},{"name":"requiredAmount","type":"uint256","internalType":"uint256"}]},{"type":"error","name":"ERC1967InvalidImplementation","inputs":[{"name":"implementation","type":"address","internalType":"address"}]},{"type":"error","name":"ERC1967NonPayable","inputs":[]},{"type":"error","name":"FailedInnerCall","inputs":[]},{"type":"error","name":"HigherBidExists","inputs":[{"name":"amount","type":"uint256","internalType":"uint256"},{"name":"highestBid","type":"uint256","internalType":"uint256"}]},{"type":"error","name":"InvalidInitialization","inputs":[]},{"type":"error","name":"InvalidTaskId","inputs":[{"name":"taskId","type":"bytes32","internalType":"bytes32"}]},{"type":"error","name":"NotAssignedProver","inputs":[{"name":"prover","type":"address","internalType":"address"},{"name":"sender","type":"address","internalType":"address"}]},{"type":"error","name":"NotInitializing","inputs":[]},{"type":"error","name":"NotRegistered","inputs":[{"name":"sender","type":"address","internalType":"address"}]},{"type":"error","name":"OwnableInvalidOwner","inputs":[{"name":"owner","type":"address","internalType":"address"}]},{"type":"error","name":"OwnableUnauthorizedAccount","inputs":[{"name":"account","type":"address","internalType":"address"}]},{"type":"error","name":"SafeERC20FailedOperation","inputs":[{"name":"token","type":"address","internalType":"address"}]},{"type":"error","name":"TaskAlreadyClaimed","inputs":[{"name":"taskId","type":"bytes32","internalType":"bytes32"}]},{"type":"error","name":"UUPSUnauthorizedCallContext","inputs":[]},{"type":"error","name":"UUPSUnsupportedProxiableUUID","inputs":[{"name":"slot","type":"bytes32","internalType":"bytes32"}]}],"bytecode":{"object":"0x60a06040523060805234801561001457600080fd5b50608051611d6061003e60003960008181610e5c01528181610e8501526111b10152611d606000f3fe6080604052600436106101355760003560e01c806386a4430c116100ab578063e579f5001161006f578063e579f500146103a3578063eb990c5914610438578063f2c298be14610458578063f2fde38b14610478578063f5660dbc14610498578063fc0c546a146104b857600080fd5b806386a4430c1461029b5780638da5cb5b146102bb578063ad3cb1cc146102f8578063c67816a014610336578063d57bde791461035657600080fd5b8063454a2ab3116100fd578063454a2ab3146102095780634f1ef286146102295780635205e8581461023c57806352d1902d14610251578063711fa58d14610266578063715018a61461028657600080fd5b80630344750b1461013a5780630ead865d1461015c5780632795cb7f146101855780632b7ac3f3146101d35780633a5feca2146101f3575b600080fd5b34801561014657600080fd5b5061015a6101553660046116b7565b6104d8565b005b34801561016857600080fd5b5061017260025481565b6040519081526020015b60405180910390f35b34801561019157600080fd5b506101bb6101a0366004611726565b6009602052600090815260409020546001600160a01b031681565b6040516001600160a01b03909116815260200161017c565b3480156101df57600080fd5b506005546101bb906001600160a01b031681565b3480156101ff57600080fd5b5061017260015481565b34801561021557600080fd5b5061015a610224366004611726565b610559565b61015a61023736600461176c565b61076e565b34801561024857600080fd5b5061017261078d565b34801561025d57600080fd5b5061017261079c565b34801561027257600080fd5b5061015a61028136600461182e565b6107b9565b34801561029257600080fd5b5061015a610920565b3480156102a757600080fd5b5061015a6102b6366004611881565b610934565b3480156102c757600080fd5b507f9016d09d72d40fdae2fd8ceac6b6234c7706214fd39c1cd1e609a0528c199300546001600160a01b03166101bb565b34801561030457600080fd5b50610329604051806040016040528060058152602001640352e302e360dc1b81525081565b60405161017c91906118d7565b34801561034257600080fd5b5061017261035136600461190a565b610a55565b34801561036257600080fd5b5060065460075460085461037e926001600160a01b0316919083565b604080516001600160a01b03909416845260208401929092529082015260600161017c565b3480156103af57600080fd5b506104006103be366004611726565b60046020819052600091825260409091208054600182015460028301546003840154948401546005909401546001600160a01b03938416959290931693909286565b604080516001600160a01b039788168152969095166020870152938501929092526060840152608083015260a082015260c00161017c565b34801561044457600080fd5b5061015a610453366004611945565b610ad6565b34801561046457600080fd5b5061015a610473366004611972565b610c53565b34801561048457600080fd5b5061015a6104933660046119b4565b610c5d565b3480156104a457600080fd5b506103296104b33660046119b4565b610c9b565b3480156104c457600080fd5b506000546101bb906001600160a01b031681565b60005460015460405163d505accf60e01b81526001600160a01b039092169163d505accf9161051591339130918a908a908a908a906004016119cf565b600060405180830381600087803b15801561052f57600080fd5b505af1158015610543573d6000803e3d6000fd5b505050506105518686610d35565b505050505050565b336000908152600360205260409020805461057390611a10565b905060000361059c5760405163bfc6c33760e01b81523360048201526024015b60405180910390fd5b6000600254436105ac9190611a4a565b6105b7906001611a6c565b905080600660020154101561067b576006546001600160a01b03161561064757600680546008805460009081526009602090815260409182902080546001600160a01b0319166001600160a01b03958616179055915493548151948552909216908301527f9dcc55c1af5d7ad8552ce05a7bc39c3cd3a3d1bcc1d0f12b1e213d677c0cf5ca910160405180910390a15b604080516060810182526000808252602082018190529101829052600680546001600160a01b031916905560075560088190555b60075482116106ab576007546040516329307ff560e21b8152610593918491600401918252602082015260400190565b6006546001600160a01b0316156106dd576006546007546000546106dd926001600160a01b0391821692911690610dae565b6000546106f5906001600160a01b0316333085610e12565b6040805160608082018352338083526020808401879052928401859052600680546001600160a01b031916821790556007869055600885905583519081529182018590529181018390527fdf8644c0a4c21ed214ce69f395675b3a5fcd1039083daea5058898de40ea3149910160405180910390a15050565b610776610e51565b61077f82610ef6565b6107898282610efe565b5050565b6000610797610fbb565b905090565b60006107a66111a6565b50600080516020611d0b83398151915290565b6000848152600460208190526040918290206005546003820154935163ab750e7560e01b815291936001600160a01b039091169263ab750e759261080392889288928b9101611ab6565b60006040518083038186803b15801561081b57600080fd5b505afa15801561082f573d6000803e3d6000fd5b50505050806004015484141580610872575080600501548383604051602001610859929190611add565b6040516020818303038152906040528051906020012014155b156109195760018101546001600160a01b0316600090815260036020526040812061089c9161160a565b6108c53360015483600201546108b29190611a6c565b6000546001600160a01b03169190610dae565b60018101546003820154604080516001600160a01b039093168352602083018890528201527f57e64eaa62fd489da654cce6fe55d48311e3ea8458ee62f7e46c00f68cb8bab2906060015b60405180910390a15b5050505050565b6109286111ef565b610932600061124a565b565b600084815260046020526040902080546001600160a01b031661096d57604051633957b7f560e21b815260048101869052602401610593565b80600201546000036109955760405163053da19760e11b815260048101869052602401610593565b60018101546001600160a01b031633146109d9576001810154604051632ffebfbf60e01b81526001600160a01b039091166004820152336024820152604401610593565b6003810184905560048101839055600581018290556000600282018190558054610a10916001600160a01b03909116903390610dae565b6040805186815260208101869052908101849052606081018390527f26b9a442d6ce2b178fcfc8f2eaa71dabd781febf0a15a389f114bd9800d5d75690608001610910565b6000805460075460405163d505accf60e01b81526001600160a01b039092169163d505accf91610a9391339130918b908b908b908b906004016119cf565b600060405180830381600087803b158015610aad57600080fd5b505af1158015610ac1573d6000803e3d6000fd5b50505050610acd610fbb565b95945050505050565b7ff0c57e16840df040f15088dc2f81fe391c3923bec73e23a9662efc9c229c6a008054600160401b810460ff16159067ffffffffffffffff16600081158015610b1c5750825b905060008267ffffffffffffffff166001148015610b395750303b155b905081158015610b47575080155b15610b655760405163f92ee8a960e01b815260040160405180910390fd5b845467ffffffffffffffff191660011785558315610b8f57845460ff60401b1916600160401b1785555b610b98336112bb565b610ba06112cc565b600580546001600160a01b03808c166001600160a01b03199283161790925560008054928b169282169290921782556001899055600288905560408051606081018252838152602081018490520182905260068054909116905560078190556008558315610c4857845460ff60401b19168555604051600181527fc7f505b2f371ae2175ee4913f4499e1f2633a7b5936321eed1cdaeb6115181d29060200160405180910390a15b505050505050505050565b6107898282610d35565b610c656111ef565b6001600160a01b038116610c8f57604051631e4fbdf760e01b815260006004820152602401610593565b610c988161124a565b50565b60036020526000908152604090208054610cb490611a10565b80601f0160208091040260200160405190810160405280929190818152602001828054610ce090611a10565b8015610d2d5780601f10610d0257610100808354040283529160200191610d2d565b820191906000526020600020905b815481529060010190602001808311610d1057829003601f168201915b505050505081565b33610d745760405162461bcd60e51b815260206004820152600f60248201526e496e76616c6964206164647265737360881b6044820152606401610593565b336000908152600360205260409020610d8e828483611b41565b50600154600054610789916001600160a01b039091169033903090610e12565b6040516001600160a01b03838116602483015260448201839052610e0d91859182169063a9059cbb906064015b604051602081830303815290604052915060e01b6020820180516001600160e01b0383818316178352505050506112d4565b505050565b6040516001600160a01b038481166024830152838116604483015260648201839052610e4b9186918216906323b872dd90608401610ddb565b50505050565b306001600160a01b037f0000000000000000000000000000000000000000000000000000000000000000161480610ed857507f00000000000000000000000000000000000000000000000000000000000000006001600160a01b0316610ecc600080516020611d0b833981519152546001600160a01b031690565b6001600160a01b031614155b156109325760405163703e46dd60e11b815260040160405180910390fd5b610c986111ef565b816001600160a01b03166352d1902d6040518163ffffffff1660e01b8152600401602060405180830381865afa925050508015610f58575060408051601f3d908101601f19168201909252610f5591810190611c01565b60015b610f8057604051634c9c8ce360e01b81526001600160a01b0383166004820152602401610593565b600080516020611d0b8339815191528114610fb157604051632a87526960e21b815260048101829052602401610593565b610e0d8383611337565b60008060025443610fcc9190611a4a565b6000818152600960205260409020549091506001600160a01b0316806110345760405162461bcd60e51b815260206004820152601a60248201527f4e6f2070726f76657220666f722063757272656e7420736c6f740000000000006044820152606401610593565b6040805160c08082018352338083526001600160a01b038581166020808601918252600754868801908152600060608089018281526080808b0184815260a0808d019586528d519788019a909a5296519097169a85019a909a5291519183019190915296519281019290925251918101919091529251908301529060e00160408051808303601f19018152918152815160209283012060008181526004808552838220865181546001600160a01b03199081166001600160a01b0392831617835596880151600183018054909816908216179096559386015160028501556060860151600385015560808601519084015560a0850151600590930192909255600754915490965061114a92169033903090610e12565b6001600160a01b0382166000908152600360205260409081902090517f57c91e1c1442d8533c7a25feeec2a38d72fa6d11d718c91eed181d6812b5486c916111989187913391879190611c1a565b60405180910390a150505090565b306001600160a01b037f000000000000000000000000000000000000000000000000000000000000000016146109325760405163703e46dd60e11b815260040160405180910390fd5b336112217f9016d09d72d40fdae2fd8ceac6b6234c7706214fd39c1cd1e609a0528c199300546001600160a01b031690565b6001600160a01b0316146109325760405163118cdaa760e01b8152336004820152602401610593565b7f9016d09d72d40fdae2fd8ceac6b6234c7706214fd39c1cd1e609a0528c19930080546001600160a01b031981166001600160a01b03848116918217845560405192169182907f8be0079c531659141344cd1fd0a4f28419497f9722a3daafe3b4186f6b6457e090600090a3505050565b6112c361138d565b610c98816113d6565b61093261138d565b60006112e96001600160a01b038416836113de565b9050805160001415801561130e57508080602001905181019061130c9190611ccc565b155b15610e0d57604051635274afe760e01b81526001600160a01b0384166004820152602401610593565b611340826113f5565b6040516001600160a01b038316907fbc7cd75a20ee27fd9adebab32041f755214dbc6bffa90cc0225b39da2e5c2d3b90600090a280511561138557610e0d828261145a565b6107896114c7565b7ff0c57e16840df040f15088dc2f81fe391c3923bec73e23a9662efc9c229c6a0054600160401b900460ff1661093257604051631afcd79f60e31b815260040160405180910390fd5b610c6561138d565b60606113ec838360006114e6565b90505b92915050565b806001600160a01b03163b60000361142b57604051634c9c8ce360e01b81526001600160a01b0382166004820152602401610593565b600080516020611d0b83398151915280546001600160a01b0319166001600160a01b0392909216919091179055565b6060600080846001600160a01b0316846040516114779190611cee565b600060405180830381855af49150503d80600081146114b2576040519150601f19603f3d011682016040523d82523d6000602084013e6114b7565b606091505b5091509150610acd858383611585565b34156109325760405163b398979f60e01b815260040160405180910390fd5b60608147101561150b5760405163cd78605960e01b8152306004820152602401610593565b600080856001600160a01b031684866040516115279190611cee565b60006040518083038185875af1925050503d8060008114611564576040519150601f19603f3d011682016040523d82523d6000602084013e611569565b606091505b5091509150611579868383611585565b925050505b9392505050565b60608261159a57611595826115e1565b61157e565b81511580156115b157506001600160a01b0384163b155b156115da57604051639996b31560e01b81526001600160a01b0385166004820152602401610593565b508061157e565b8051156115f15780518082602001fd5b604051630a12f52160e11b815260040160405180910390fd5b50805461161690611a10565b6000825580601f10611626575050565b601f016020900490600052602060002090810190610c9891905b808211156116545760008155600101611640565b5090565b60008083601f84011261166a57600080fd5b50813567ffffffffffffffff81111561168257600080fd5b60208301915083602082850101111561169a57600080fd5b9250929050565b803560ff811681146116b257600080fd5b919050565b60008060008060008060a087890312156116d057600080fd5b863567ffffffffffffffff8111156116e757600080fd5b6116f389828a01611658565b9097509550506020870135935061170c604088016116a1565b925060608701359150608087013590509295509295509295565b60006020828403121561173857600080fd5b5035919050565b80356001600160a01b03811681146116b257600080fd5b634e487b7160e01b600052604160045260246000fd5b6000806040838503121561177f57600080fd5b6117888361173f565b9150602083013567ffffffffffffffff808211156117a557600080fd5b818501915085601f8301126117b957600080fd5b8135818111156117cb576117cb611756565b604051601f8201601f19908116603f011681019083821181831017156117f3576117f3611756565b8160405282815288602084870101111561180c57600080fd5b8260208601602083013760006020848301015280955050505050509250929050565b6000806000806060858703121561184457600080fd5b8435935060208501359250604085013567ffffffffffffffff81111561186957600080fd5b61187587828801611658565b95989497509550505050565b6000806000806080858703121561189757600080fd5b5050823594602084013594506040840135936060013592509050565b60005b838110156118ce5781810151838201526020016118b6565b50506000910152565b60208152600082518060208401526118f68160408501602087016118b3565b601f01601f19169190910160400192915050565b6000806000806080858703121561192057600080fd5b84359350611930602086016116a1565b93969395505050506040820135916060013590565b6000806000806080858703121561195b57600080fd5b6119648561173f565b93506119306020860161173f565b6000806020838503121561198557600080fd5b823567ffffffffffffffff81111561199c57600080fd5b6119a885828601611658565b90969095509350505050565b6000602082840312156119c657600080fd5b6113ec8261173f565b6001600160a01b0397881681529590961660208601526040850193909352606084019190915260ff16608083015260a082015260c081019190915260e00190565b600181811c90821680611a2457607f821691505b602082108103611a4457634e487b7160e01b600052602260045260246000fd5b50919050565b600082611a6757634e487b7160e01b600052601260045260246000fd5b500490565b808201808211156113ef57634e487b7160e01b600052601160045260246000fd5b81835281816020850137506000828201602090810191909152601f909101601f19169091010190565b606081526000611aca606083018688611a8d565b6020830194909452506040015292915050565b602081526000611af1602083018486611a8d565b949350505050565b601f821115610e0d576000816000526020600020601f850160051c81016020861015611b225750805b601f850160051c820191505b8181101561055157828155600101611b2e565b67ffffffffffffffff831115611b5957611b59611756565b611b6d83611b678354611a10565b83611af9565b6000601f841160018114611ba15760008515611b895750838201355b600019600387901b1c1916600186901b178355610919565b600083815260209020601f19861690835b82811015611bd25786850135825560209485019460019092019101611bb2565b5086821015611bef5760001960f88860031b161c19848701351681555b505060018560011b0183555050505050565b600060208284031215611c1357600080fd5b5051919050565b8481526000602060018060a01b0380871660208501528086166040850152506080606084015260008454611c4d81611a10565b80608087015260a0600180841660008114611c6f5760018114611c8b57611cbb565b60ff19851660a08a015260a084151560051b8a01019550611cbb565b89600052602060002060005b85811015611cb25781548b8201860152908301908801611c97565b8a0160a0019650505b50939b9a5050505050505050505050565b600060208284031215611cde57600080fd5b8151801515811461157e57600080fd5b60008251611d008184602087016118b3565b919091019291505056fe360894a13ba1a3210667c828492db98dca3e2076cc3735a920a3ca505d382bbca26469706673582212205b5fa8487e769b1dafeb88d1b48c7c9ece57ef009a253e8e7e69cf3ed0db694d64736f6c63430008170033","linkReferences":{}},"methodIdentifiers":{"UPGRADE_INTERFACE_VERSION()":"ad3cb1cc","bid(uint256)":"454a2ab3","endpoints(address)":"f5660dbc","finalizeTask(bytes32,bytes32,bytes32,bytes32)":"86a4430c","highestBid()":"d57bde79","initialize(address,address,uint256,uint256)":"eb990c59","owner()":"8da5cb5b","proxiableUUID()":"52d1902d","register(string)":"f2c298be","registerPermit(string,uint256,uint8,bytes32,bytes32)":"0344750b","registerThreshold()":"3a5feca2","renounceOwnership()":"715018a6","requestTask()":"5205e858","requestTaskPermit(uint256,uint8,bytes32,bytes32)":"c67816a0","slash(bytes32,bytes32,bytes)":"711fa58d","slotDuration()":"0ead865d","slotToProver(uint256)":"2795cb7f","tasks(bytes32)":"e579f500","token()":"fc0c546a","transferOwnership(address)":"f2fde38b","upgradeToAndCall(address,bytes)":"4f1ef286","verifier()":"2b7ac3f3"},"id":0}